:1000000041C100000C94CD210C94FE210C942F22B0
:100010000C9460220C9491220C94C2220C94F32232
:100020000C94242360C100005EC100005CC100008C
:100030005AC1000058C1000056C1000054C1000060
:1000400052C100000C94351D4EC100004CC100008F
:100050004AC1000048C1000046C100000C9455236D
:1000600042C100000C94A0270C94D6273CC100008C
:100070003AC1000038C1000036C1000034C10000A0
:100080000C94621D30C100002EC100002CC1000084
:100090002AC1000028C1000026C100000C942D20B8
:1000A00022C1000020C100000C948F1D1CC1000063
:1000B0001AC1000018C1000016C100000C94BC1D3C
:1000C00012C1000010C100000EC100000CC10000F0
:1000D0000AC1000008C1000006C1000004C1000000
:1000E00002C100001B1529152F155115641578152F
:1000F0007A157F15A7217121792185219221B321BC
:10010000C021A824AD24B224BC24C6243F25D02479
:10011000D824E024EA24F424FE240D2517253F25C5
:1001200021252B25352560256325522556255C255F
:100130009A2567256B257125752579257F258325CA
:1001400087259A258D259125952500000A0B020902
:100150000C0D0E0807030401000000000000000061
:10016000000000000000000000000000000000008F
:10017000000000000000121110000000000000004C
:10018000000000000000000000000000000000006F
:100190000102102020080810204010204080020199
:1001A000020108040201010204081020408080407E
:1001B000201008040201800402018040201008047D
:1001C000020108040201010204081020408001021B
:1001D00004081020408005050505070508080808E3
:1001E000020202020A0A08080404040401010101CF
:1001F00001010101030303030303030304070707CA
:100200000C0C0C0C0C0C0C0C02020202060606066E
:10021000060606060B0B0B0B0B0B0B0B000020004E
:100220002300260029002C002F00320000010000CE
:1002300003010601090100002200250028002B000F
:100240002E003100340002010000050108010B01FD
:1002500000002100240027002A002D003000330078
:1002600001010000040107010A01F801A302AE0226
:10027000B902C702D202DD02CE06700D7E10012047
:100280000828982811241FBECFEFD1E2DEBFCDBFD2
:1002900000E00CBF12E0A0E0B2E0E0E0FCE500E02E
:1002A0000BBF02C007900D92A83EB107D9F727E017
:1002B000A8EEB2E001C01D92A736B207E1F712E046
:1002C000C4E8D2E000E006C022970109FE010BBF9E
:1002D0000E948B2CCA36D10780E00807A9F70E943C
:1002E000A8280C94FE2D8CCE1F93CF93DF93182F4C
:1002F000EB01863428F5682F85EE93E0B7D3833081
:1003000059F08430E9F48EEF810F8033C8F4BE01D8
:10031000812F0E94271A0CC08EEF810F8C3020F0A5
:1003200084ED810F833060F4BE01812F0E9485240B
:10033000AE01612F85EE93E0DF91CF911F91CFC386
:10034000DF91CF911F9108950F931F9386E993E05A
:10035000A8D685EE93E03BD2892BB9F00E949F236B
:100360006093E8027093E9028093EA029093EB02B3
:1003700085EE93E084D485EE93E0A1D28111E9CF9C
:100380008CEF92E00E94C81305C085EE93E097D2EF
:100390008823B1F38EEE92E00E941F12882339F079
:1003A00080E993E0B7D58AEF92E00E94E50E8DE1F7
:1003B00093E00E94481C0E949F230091E802109144
:1003C000E9022091EA023091EB02601B710B820B73
:1003D000930B693873418105910538F0E091EC0287
:1003E000F091ED021F910F9119941F910F910895B3
:1003F0000F9300E020E040E060E083EB93E00E9498
:100400008C2886E993E026D684E993E00E94140CB8
:1004100080E993E01CD580E392E090938F03809372
:100420008E038CE293E00E940C1A89EB92E0909389
:100430001E0380931D0382E093E00E94C8118CEF9D
:1004400092E00E948F128AEF92E00E94460E85E9A8
:1004500092E09093EF028093EE020F910895CF9374
:10046000C0E08AEC8C0F803110F442E005C08EEFC2
:100470008C0F843428F441E06C2F85EE93E0FDD29C
:10048000CF5FC63471F782E093E0CF910C94B51042
:1004900026E042E06CE072E085EE93E038D144E77C
:1004A00051E060EE85EE93E0AAD266E973E082E067
:1004B00093E00E94E51164E973E082E093E00E941A
:1004C000E51160E973E082E093E00E94E5116EE8D7
:1004D00073E082E093E00E94E5116CE273E082E059
:1004E00093E00E94E5116DE173E082E093E00E94E9
:1004F000E5116EEE72E082E093E00E94E5116CEF90
:1005000072E082E093E00E94E5116AEF72E082E01F
:1005100093E00E94E5114FE252E06FEF85EE93E029
:1005200091D240E052EC61E070E085EE93E022D49D
:100530000E949F236093E8027093E9028093EA028D
:100540009093EB028CCF0F9300E020E040E060E05E
:1005500089EB93E00E948C280F9108950F9300E09F
:1005600020E040E060E08FEB93E00E948C280F9148
:1005700008950F9300E020E040E060E08DEC93E010
:100580000E948C2885EC93E00F910C9482280F93A5
:1005900000E020E040E060E083ED93E00E948C28E2
:1005A0000F9108950F9300E020E040E060E089EDB6
:1005B00093E00E948C280F9108950F9300E020E0B3
:1005C00040E060E08FED93E00E948C280F91089549
:1005D0000F931F93CF93DF93EC018B018881998157
:1005E000DC01ED91FC916F770190F081E02D199580
:1005F00088819981DC01ED91FC91B801660F672F2C
:10060000661F770B6F770190F081E02DDF91CF911E
:100610001F910F911994DC018D919C91DC01ED915A
:10062000FC910190F081E02D60EF1994DC018D9137
:100630009C91DC01ED91FC910190F081E02D67EF40
:100640001994CF93DF93EC0188819981DC01ED91BE
:10065000FC910190F081E02D69EF199588819981D5
:10066000DC01ED91FC910190F081E02D62E01995A3
:1006700088819981DC01ED91FC910190F081E02D60
:1006800066E0DF91CF9119941F93CF93DF93EC0134
:100690008A818823C1F1CE01BEDF88819981DC0186
:1006A000ED91FC910190F081E02D69E71995888129
:1006B0009981DC01ED91FC91AB81BC810190F081CD
:1006C000E02D6C91199588819981DC01ED91FC9167
:1006D000AB81BC810190F081E02D11966C91199550
:1006E00012E08A81181750F4EB81FC81E10FF11DB3
:1006F000608170E0CE016CDF1F5FF3CFCE01DF9130
:10070000CF911F9193CFDF91CF911F910895CF92F9
:10071000DF92EF92FF920F931F93CF93DF938C01A1
:10072000EB01C42ED22E6BE172E0CE010E94E42DCB
:100730007C016FE270E0CE010E94D92D009739F460
:100740006CE570E0CE010E94D92D009711F0EC010C
:100750002196E114F10451F4FE0101900020E9F723
:10076000EC1BEF5FD8011296EC9306C0EC1AFD0A61
:10077000E394E394F801E282D80113968D919C9161
:1007800014970E943B2DF801E280F12CC7010E94D2
:10079000A32CD80114969C938E931397DC01AE0D75
:1007A000BF1D1C92FC01C082D182D80112964C91CF
:1007B00050E042505109BE010296DF91CF911F9146
:1007C0000F91FF90EF90DF90CF900C94CA2DDC0139
:1007D0008D919C91DC01ED91FC910480F581E02DDF
:1007E00019940F931F93CF93DF93FC01208521373A
:1007F00041F0293709F048C0DF91CF911F910F9147
:1008000043CFFC01E75DFE4F0190F081E02D309772
:1008100009F450C0DC01A75BBF4F4D915C919A0178
:100820002150310937FD9A01B90175956795062F59
:1008300040E050E020E030E04E5F5F4F2017A0F432
:10084000EC01C40FD51F1F81DC01A20FB31F189646
:100850001C931897C885D0E8CD9F101911241896BD
:100860001C932F5F3F4FE8CFDC01A60FB11D1796F9
:100870002C911797222311F018961C920896DF915D
:10088000CF911F910F911994FC01E55DFE4F0190EE
:10089000F081E02D309771F0AC01475F5F4FDC01D4
:1008A000A75BBF4F6C916150822FDF91CF911F9159
:1008B0000F911994DF91CF911F910F910895FC0131
:1008C0002581211104C0E85BFF4F8081089581E0FC
:1008D00008950F931F93CF93DF93EC018A018881D2
:1008E0009981DC01ED91FC916F70606E0190F08157
:1008F000E02D1995B801CE01DF91CF911F910F9195
:1009000067CE0F931F93CF93DF93EC018A01888109
:100910009981DC01ED91FC916F7060690190F0812B
:10092000E02D199588819981DC01ED91FC91602F72
:100930006F770190F081E02D199588819981DC0114
:10094000ED91FC91B801660F672F661F770B019040
:10095000F081E02DDF91CF911F910F911994CF92EB
:10096000DF92EF92FF920F931F93CF93DF9300D00C
:10097000CDB7DEB78C01F42E2A833B8369834BDE2F
:10098000D8018D919C91DC01ED91FC910190F08159
:10099000E02D698119952A81E22EC22E3B81D32E4A
:1009A0008C2D8E198F1538F4F60161916F0170E06E
:1009B000C8010EDEF5CFC8010F900F900F90DF91A8
:1009C000CF911F910F91FF90EF90DF90CF902ECE9F
:1009D0009A01FA0101900020E9F73197E41BF50B29
:1009E0004E2FBDCFAB0161E7F3CFDC018D919C9120
:1009F000DC01ED91FC910190F081E02D1994603DB6
:100A0000B9F028F4603961F0603C71F00895603EFF
:100A100019F0643F89F00895FC01E35EFE4F0FC0BA
:100A2000FC01E15EFE4F0BC0FC01EF5DFE4F07C015
:100A3000FC01ED5DFE4F03C0FC01EB5DFE4F5183F9
:100A4000408308956F3F29F4FC01E95DFE4F518317
:100A500040830895855D9E4FFC0151834083089536
:100A6000835D9E4FFC01718360830895860F911D05
:100A7000FC01E55BFF4F80810895CF93DF93A62FA4
:100A8000262F30E0FC01E20FF31FE55BFF4F5081A2
:100A90005F37C1F0220F331F280F391FE901CF56EE
:100AA000DF4F198218824083FC01EB5DFE4F0190FD
:100AB000F081E02D309731F0642F70E08A2FDF91C4
:100AC000CF911994DF91CF910895860F911D860FD4
:100AD000911DFC01EF56FF4F808191810895860F93
:100AE000911D860F911DFC01EF56FF4F51834083EE
:100AF0000895FC0115821682178280E090E0DF01E4
:100B0000A80FB91F18961C92019680349105B9F769
:100B1000DF01A85BBF4F1C9211961D921C92E95DEC
:100B2000FE4F0190F081E02D309709F0199408955F
:100B3000FC01128214821382DCCFCF93DF93EC018D
:100B4000FC01E85BFF4F8081882399F0673F29F41F
:100B50001082CE01DF91CF9144CEFE01E75BFF4FC3
:100B600080819181C80FD91F688701969183808306
:100B700083C08D81882309F445C067FD43C081503F
:100B80008D83FE01E80FF11D6087811175C08E8194
:100B9000882309F471C0803D39F140F4803999F01F
:100BA000803C71F5FE01EF5DFE4F21C0803E39F0C3
:100BB000843F31F548856985CE015FDF21C0FE01A4
:100BC000E35EFE4F03C0FE01E15EFE4F0190F08147
:100BD000E02D3097A9F08885698570E090E8899FBD
:100BE000600D711D11240AC0FE01ED5DFE4F0190E4
:100BF000F081E02D309721F0688570E08F811995A4
:100C00001E823AC0862F603F28F4807F90E06F708C
:100C10006F8301C090E0803E910519F154F4803C4F
:100C2000910509F1803D9105F1F08039910521F59B
:100C300018C0843F9105A9F054F4803F9105E1F478
:100C400081E08083C75BDF4F1982188215C0893F1E
:100C5000910569F08F3F910579F4CE01DF91CF9135
:100C600048CF92E001C091E09D838E8305C085EE60
:100C700093E0DF91CF91E5CCDF91CF910895CF93B1
:100C8000DF93EC0188819981DC01ED91FC91068074
:100C9000F781E02D19958F3FBFEF9B0729F0682F53
:100CA000CE01DF91CF9149CFDF91CF9108958F92FF
:100CB0009F92AF92BF92CF92DF92EF92FF921F93DB
:100CC000CF93DF93EB014A01690161E08DE00E945F
:100CD0009B2510E0EE24D7FCE094FE2CAA2497FC80
:100CE000A094BA2C812F90E08C179D0794F4C70133
:100CF000B6010E94CE2361E08DE00E94D425C5019B
:100D0000B4010E94CE2360E08DE00E94D4251F5FD5
:100D1000E9CFDF91CF911F91FF90EF90DF90CF90BF
:100D2000BF90AF909F908F900895CF93DF93EC0189
:100D300061E08DE00E949B2522ED30E048E250E02A
:100D400062E070E0CE01B3DF6AEF70E080E090E037
:100D50000E94CE2322ED30E048E250E066E070E0F1
:100D6000CE01A5DF6DE770E080E090E0DF91CF91EC
:100D70000C94CE23CF93DF93EC0126E080EC96E039
:100D80000E94402780EC96E099838883CE01CDDFD6
:100D9000CE0157DCCE01DF91CF9176CC85EE93E08A
:100DA000C7CECF938936D1F460EF85EE93E01DDE98
:100DB0006AE685EE93E019DECAECC03110F06FE709
:100DC00001C06C2F85EE93E010DECF5FC031A9F734
:100DD00067EF85EE93E009DE81E001C080E0CF910E
:100DE0000895FC01138212820895862FA42FF90121
:100DF0006F36E9F44230F0F0618170E0423091F0FA
:100E0000828120E8829FC0011124682B792B433016
:100E100049F0838190E090E4899F902D88271124E8
:100E2000682B792B80810E94852481E00895A90197
:100E30006A2FB7CF08956653603140F462E085EEC3
:100E400093E0D3DD6AE085EE93E0CFCD089524E210
:100E500032E0FC01318320839093150580931405C3
:100E60001382128247E657E060EC85EE93E0C7CD2F
:100E7000CF93DF931F92CDB7DEB7FC01603118F539
:100E8000A281B38121E030E0062E02C0220F331F81
:100E90000A94E2F7452B39F4209530952A233B2319
:100EA0003383228310C02A2B3B2B33832283862F4C
:100EB00069830E946024AC01698185EE93E00F9004
:100EC000DF91CF9106CD0F90DF91CF910895AB01C7
:100ED000682F8091140590911505CACFCF93C62F26
:100EE0006AEC6C0F603198F44230510569F441E0CE
:100EF00050E0BEDF60E08C2F0E949B2560E08C2FCD
:100F00000E94D42581E004C040E050E0B1DF80E0E1
:100F1000CF9108951F93CF93DF93EC011AEC66E312
:100F2000610F1031B8F485EE93E0A0DD823091F4CA
:100F30002A813B81012E02C0359527950A94E2F75C
:100F400020FF08C0812F0E946024AC01612F85EE34
:100F500093E0BFDC1F5F103111F7DF91CF911F913C
:100F6000089508958EEF860F8C3018F06C52633020
:100F700040F463E085EE93E038DD68E085EE93E0D1
:100F800034CD0895862F642FA9010BCFCF93C62FA0
:100F90004330510599F48EEF860F8C3020F084EDAC
:100FA000860F833058F461E08C2F0E949B2560E00F
:100FB00070E08C2F0E94852481E001C080E0CF91F9
:100FC000089580E0089520E030E0FC01E20FF31F77
:100FD0001282148A13862F5F3F4F29303105A9F7FB
:100FE0000895CF939C01C62F8EEF860F843418F599
:100FF000962F969596959695862F8770F901E90F0D
:10100000F11D21E030E0082E01C0220F0A94EAF71A
:10101000452B69F48489822B848B60E08C2F0E949D
:101020009B2560E08C2F0E94D42581E005C020958F
:1010300084892823248B80E0CF9108956250643402
:1010400040F460E085EE93E0D0DC61E085EE93E073
:10105000CCCC08952CE332E0FC01318320839093C3
:101060001705809316054EEF5BE060ED85EE93E08B
:10107000C6CC1F93CF93DF93142FEC01C60FD11D65
:101080008C891823211103C08B85811731F0412FE2
:1010900050E085EE93E035DC1B87DF91CF911F9107
:1010A00008950F931F93CF93DF93EC018A818823D8
:1010B000B9F10C8902FF80C282E00E940926892BC7
:1010C00009F47AC214E003FF06C083E00E940926F7
:1010D000892B09F073C204FF06C084E00E94092630
:1010E000892B09F06DC205FF06C085E00E94092624
:1010F000892B09F067C206FF06C086E00E94092618
:10110000892B09F061C207FF06C087E00E9409260B
:10111000892B09F05BC220E0412F60E0CE01A9DFFE
:101120008B81882309F447C00D8900FF51C288E0F4
:101130000E940926892B09F44BC211E001FF06C069
:1011400089E00E940926892B09F044C202FF06C0EB
:101150008AE00E940926892B09F03EC203FF06C0DF
:101160008BE00E940926892B09F038C204FF06C0D3
:101170008CE00E940926892B09F032C205FF06C0C7
:101180008DE00E940926892B09F02CC206FF06C0BB
:101190008EE00E940926892B09F026C207FF06C0AF
:1011A0008FE00E940926892B09F020C220E0412F00
:1011B00061E0CE015EDF8C81882309F447C00E898F
:1011C00000FF16C280E10E940926892B09F410C293
:1011D00011E001FF06C081E10E940926892B09F078
:1011E00009C202FF06C082E10E940926892B09F08C
:1011F00003C203FF06C083E10E940926892B09F080
:10120000FDC104FF06C084E10E940926892B09F074
:10121000F7C105FF06C085E10E940926892B09F068
:10122000F1C106FF06C086E10E940926892B09F05C
:10123000EBC107FF06C087E10E940926892B09F050
:10124000E5C120E0412F62E0CE0113DF8D818823CC
:1012500009F447C00F8900FFDBC188E10E9409261D
:10126000892B09F4D5C111E001FF06C089E10E9474
:101270000926892B09F0CEC102FF06C08AE10E942F
:101280000926892B09F0C8C103FF06C08BE10E9423
:101290000926892B09F0C2C104FF06C08CE10E9417
:1012A0000926892B09F0BCC105FF06C08DE10E940B
:1012B0000926892B09F0B6C106FF06C08EE10E94FF
:1012C0000926892B09F0B0C107FF06C08FE10E94F3
:1012D0000926892B09F0AAC120E0412F63E0CE0145
:1012E000C8DE8E81882309F447C0088D00FFA0C1A5
:1012F00080E20E940926892B09F49AC111E001FFBE
:1013000006C081E20E940926892B09F093C102FFE1
:1013100006C082E20E940926892B09F08DC103FFD5
:1013200006C083E20E940926892B09F087C104FFC9
:1013300006C084E20E940926892B09F081C105FFBD
:1013400006C085E20E940926892B09F07BC106FFB1
:1013500006C086E20E940926892B09F075C107FFA5
:1013600006C087E20E940926892B09F06FC120E0A0
:10137000412F64E0CE017DDE8F81882309F447C0D0
:10138000098D00FF65C188E20E940926892B09F4B6
:101390005FC111E001FF06C089E20E940926892B86
:1013A00009F058C102FF06C08AE20E940926892B73
:1013B00009F052C103FF06C08BE20E940926892B67
:1013C00009F04CC104FF06C08CE20E940926892B5B
:1013D00009F046C105FF06C08DE20E940926892B4F
:1013E00009F040C106FF06C08EE20E940926892B43
:1013F00009F03AC107FF06C08FE20E940926892B37
:1014000009F034C120E0412F65E0CE0132DE88854D
:10141000882309F447C00A8D00FF2AC180E30E9497
:101420000926892B09F424C111E001FF06C081E3DC
:101430000E940926892B09F01DC102FF06C082E324
:101440000E940926892B09F017C103FF06C083E318
:101450000E940926892B09F011C104FF06C084E30C
:101460000E940926892B09F00BC105FF06C085E300
:101470000E940926892B09F005C106FF06C086E3F4
:101480000E940926892B09F0FFC007FF06C087E3E9
:101490000E940926892B09F0F9C020E0412F66E05F
:1014A000CE01E7DD8985882309F447C00B8D00FF55
:1014B000EFC088E30E940926892B09F4E9C011E0F6
:1014C00001FF06C089E30E940926892B09F0E2C0CA
:1014D00002FF06C08AE30E940926892B09F0DCC0BE
:1014E00003FF06C08BE30E940926892B09F0D6C0B2
:1014F00004FF06C08CE30E940926892B09F0D0C0A6
:1015000005FF06C08DE30E940926892B09F0CAC099
:1015100006FF06C08EE30E940926892B09F0C4C08D
:1015200007FF06C08FE30E940926892B09F0BEC081
:1015300020E0412F67E0CE019CDD8A85882309F4F5
:10154000C3C00C8D00FFB4C080E40E940926892B23
:1015500009F4AEC011E001FF06C081E40E94092633
:10156000892B09F0A7C002FF06C082E40E94092669
:10157000892B09F0A1C003FF06C083E40E9409265D
:10158000892B09F09BC004FF06C084E40E94092651
:10159000892B09F095C005FF06C085E40E94092645
:1015A000892B09F08FC020E0412F68E0CE01DF9148
:1015B000CF911F910F915DCD10E085CD18608BCD3F
:1015C000106191CD106297CD10649DCD1068A3CDB0
:1015D00010E0B4CD1260BACD1460C0CD1860C6CD95
:1015E0001061CCCD1062D2CD1064D8CD1068DECDA4
:1015F00010E0EFCD1260F5CD1460FBCD186001CE88
:10160000106107CE10620DCE106413CE106819CE93
:1016100010E02ACE126030CE146036CE18603CCE78
:10162000106142CE106248CE10644ECE106854CE87
:1016300010E065CE12606BCE146071CE186077CE6C
:1016400010617DCE106283CE106489CE10688FCE7B
:1016500010E0A0CE1260A6CE1460ACCE1860B2CE60
:101660001061B8CE1062BECE1064C4CE1068CACE6F
:1016700010E0DBCE1260E1CE1460E7CE1860EDCE54
:101680001061F3CE1062F9CE1064FFCE106805CF62
:1016900010E016CF12601CCF146022CF186028CF44
:1016A00010612ECF106234CF10643ACF106840CF53
:1016B00010E051CF126057CF14605DCF186063CF38
:1016C000106169CF10626FCFDF91CF911F910F91A1
:1016D0000895CF92DF92EF92FF920F931F93CF93D3
:1016E000DF938C01D62F693008F07FC0FC01E60F34
:1016F000F11D4283452B09F478C0E488F62EFF0CD7
:10170000FF0CFF0C8EEF8F0D843408F05EC0E0FEFE
:101710005CC08F2D0E940926892B09F456C0C1E0B8
:101720008FEF8F0D843448F4E1FE07C081E08F0D08
:101730000E940926892B09F04AC0CF2CD12CE2FE49
:1017400007C082E08F0D0E940926892B09F041C055
:10175000E3FE06C083E08F0D0E940926892BD9F590
:10176000E4FE06C084E08F0D0E940926892BA9F5AE
:10177000E5FE06C085E08F0D0E940926892B79F5CC
:1017800080E4C816D10441F0E6FE06C086E08F0D65
:101790000E940926892B29F58FE3C816D10444F449
:1017A000E7FE06C087E08F0D0E940926892BD9F439
:1017B00021E04C2F6D2FC801DF91CF911F910F9128
:1017C000FF90EF90DF90CF9054CCC0E0A9CFC260E3
:1017D000B4CFC460BDCFC860C3CFC061C9CFC06241
:1017E000CFCFC064D9CFC068E3CFDF91CF911F9135
:1017F0000F91FF90EF90DF90CF900895AB01682F8D
:10180000809116059091170564CF80E008950895A2
:101810006250643440F461E085EE93E0E6D861E024
:1018200085EE93E0E2C8089528E432E0FC013183BC
:101830002083909319058093180540EB5CE060E9E4
:1018400085EE93E0DCC8DF92EF92FF920F931F9337
:10185000CF93DF931F92CDB7DEB7142F693008F016
:1018600076C0762F770F770F770F785F773408F091
:1018700076E4D62EDD0CDD0CDD0C0D2DE12CFF24E5
:10188000F3940717E8F48EEF800F8434B0F4602FE0
:1018900085EE93E07983EAD87981823070F4EF287D
:1018A00041E050E08F2D812311F440E050E0602FA3
:1018B00085EE93E0798313D97981FF0C0F5FE1CF37
:1018C000E0FE05C0612F61708D2D0E94D425E1FEE0
:1018D00006C0612F627081E08D0D0E94D425E2FE6A
:1018E00006C0612F647082E08D0D0E94D425E3FE56
:1018F00006C0612F687083E08D0D0E94D425E4FE40
:1019000006C0612F607184E08D0D0E94D425E5FE34
:1019100006C0612F607285E08D0D0E94D425E6FE21
:1019200006C0612F607486E08D0D0E94D425E7FE0D
:101930000EC0612F607887E08D0D0F90DF91CF9101
:101940001F910F91FF90EF90DF900C94D4250F9092
:10195000DF91CF911F910F91FF90EF90DF9008954D
:10196000AB01682F80911805909119056CCF1F93DA
:10197000CF93DF93EC01162F8EEF860F843498F40B
:101980004130510581F485EE93E070D88F3759F0DE
:1019900040E050E0612FCE0156DF61E0812F0E94D0
:1019A0009B2581E001C080E0DF91CF911F910895D8
:1019B000FC01128211820895FC01218132811216EC
:1019C000130624F4608185EE93E00FC808950F9309
:1019D0001F93CF93DF93EC0189819A81062F10E04A
:1019E000009779F46F7785EE93E00E94F504898182
:1019F0009A8101969A838983000F012F001F110B92
:101A00002AC0980102C0220F331F8A95E2F7622F85
:101A10006F778881682B85EE93E00E94F504298119
:101A20003A812630310551F4B8017595679585EEF8
:101A300093E00E94F5041A8219820EC0C901019632
:101A40009A83898387E090E0821B930B02C01595EF
:101A500007958A95E2F70883DF91CF911F910F9147
:101A60000895CF92DF92EF92FF920F931F93CF933F
:101A7000DF937B016A01E0E0F0E007E010E0EE15A3
:101A8000FF052CF5CF0143E0880F991F4A95E1F738
:101A9000B8010E94092C9927D601A60FB71F1196ED
:101AA000CC911197A801481B590B042E01C0CC0FF3
:101AB0000A94EAF7AC91B0E002C0B595A7958A9573
:101AC000E2F7AC2BE901A9939E013196D8CFDF91C3
:101AD000CF911F910F91FF90EF90DF90CF900895DD
:101AE0001092260510922805109227050895493076
:101AF000510549F48EEF860F823010F481E008958D
:101B000062516430D8F380E008958EEF860F823002
:101B100018F06251643050F469E085EE93E00E9461
:101B2000F5046CE185EE93E00C94F5040895DC0176
:101B3000ED91FD918081ED91FD919081ED91FD916F
:101B40006C9163708E2309F064609F2309F06860D4
:101B5000E4EBFDE0E60FF11D659565956D936D91E4
:101B60007D918D919D91099423C01AC012C016C019
:101B700010C01EC009C014C013C006C019C009C0DF
:101B80000DC007C00DC014C062507040804090402E
:101B90000BC0615070408040904006C06E5F01C035
:101BA0006F5F7F4F8F4F9F4F9E938E937E936E9369
:101BB00008958091240590912505B9CF8091220543
:101BC00090912305B4CF8091200590912105AFCF4E
:101BD00080911E0590911F05AACF80911C059091C0
:101BE0001D05A5CF80911A0590911B05A0CF8231CC
:101BF00009F440C078F48230E1F0833009F044C049
:101C000070931D0560931C0541E050E06DEE7DE092
:101C100081E02CC08431B9F000F18531A9F57093D1
:101C20001F0560931E0541E050E068EE7DE082E014
:101C30001DC070931B0560931A0541E050E062EFF0
:101C40007DE080E013C0709321056093200541E0A2
:101C500050E063EE7DE083E009C07093230560935C
:101C6000220541E050E06EED7DE084E00E945C21C1
:101C700081E00895709325056093240541E050E0CC
:101C800069ED7DE085E0F2CF80E0089524E532E063
:101C9000DC012D933C938AE0EDE3F5E0DF011D923A
:101CA0008A95E9F70895CF93DF93653070F4C62FD6
:101CB000D0E0CC0FDD1FC35CDA4F8881998100979B
:101CC00021F00E943B2D19821882DF91CF91089557
:101CD0001F93CF93DF93EC0110E0612FCE01E3DF80
:101CE0001F5F1530D1F782E080930A02DF91CF9118
:101CF0001F910895653088F4E62FF0E0EE0FFF1F86
:101D0000E35CFA4F0190F081E02D309731F0F894C8
:101D1000178210861186128678940895CF92DF92EA
:101D2000EF92FF926A017B0177FF07C0CC24DD248C
:101D30007601C41AD50AE60AF70A442777FD4395C7
:101D400055276627772766E0440F551F6A95E1F708
:101D5000682F642B85EE93E00E94F5046C2D6F775D
:101D600085EE93E00E94F504D701C60177E0B595B2
:101D7000A795979587957A95D1F7682F6F7785EE18
:101D800093E00E94F504D701C601EEE0B595A79552
:101D900097958795EA95D1F7682F6F7785EE93E051
:101DA0000E94F504D701C601F5E1B595A795979571
:101DB0008795FA95D1F7682F6F7785EE93E0FF90BE
:101DC000EF90DF90CF900C94F504AF92BF92CF923A
:101DD000DF92EF92FF920F931F93CF93DF93809147
:101DE0000A02882309F455C00DE315E0C9E2D5E0E5
:101DF000B12CA12CF801E190F1908F01E114F104D4
:101E000091F1F7018385823020F4F894C7018FDEC9
:101E100001C0F894F701C780D084E184F2847894FB
:101E200080910A02813049F0488159816A817B8121
:101E30004C155D056E057F05B1F0A1100AC060EF7D
:101E400085EE93E00E94F50461E685EE93E00E9442
:101E5000F504C882D982EA82FB82B701A6018B2DE4
:101E60005DDFAA24A394B3942496F5E0BF12C2CFF9
:101E7000AA2079F067EF85EE93E0DF91CF911F9173
:101E80000F91FF90EF90DF90CF90BF90AF900C94A8
:101E9000F504DF91CF911F910F91FF90EF90DF90AC
:101EA000CF90BF90AF900895CF93C0910A0221E0E8
:101EB00020930A028ADFC0930A02CF9108951F93EC
:101EC000CF93DF93162F653070F5C62FD0E0CC0F7F
:101ED000DD1FC35CDA4F28813981232B21F160EFAC
:101EE00085EE93E00E94F50461E685EE93E00E94A2
:101EF000F5040990D881C02D8B85823020F4F894A8
:101F0000CE0115DE01C0F8944F81588569857A8528
:101F10007894812F03DF67EF85EE93E0DF91CF9117
:101F20001F910C94F504DF91CF911F910895BF92FA
:101F3000CF92DF92EF92FF920F931F93CF93DF9395
:101F40007C01C62EB42ED22E062F10E084E0861718
:101F500050F0F801EE0FFF1FE35CFA4F8081918192
:101F6000892B09F079C049E06B2D85EE93E00E9442
:101F70003D0549E06D2D85EE93E00E943D058CE026
:101F800090E00E94B428EC0162E08B2D0E949B251A
:101F900062E08D2D0E949B258B2D90E0FC01EA5282
:101FA000FE4FE491F0E0EE0FFF1FE45EFD4F259140
:101FB000349139832883FC01E057FE4F84918C8350
:101FC0008D2D90E0FC01EA52FE4FE491F0E0EE0F1F
:101FD000FF1FE45EFD4F259134913B832A83FC0172
:101FE000E057FE4F84918D831F82188619861A86CA
:101FF00080ED97E00E94F323E881F98190818C8144
:10200000982381E009F480E0EA81FB8190812D81B1
:10201000922309F082608E83BE018B2DE8DD8B87D1
:10202000BE018D2DE4DD9B85282F30E0290F311D69
:102030002B87F801EE0FFF1FE35CFA4FD183C083BB
:102040006C2DC701DF91CF911F910F91FF90EF9001
:10205000DF90CF90BF9033CFDF91CF911F910F9141
:10206000FF90EF90DF90CF90BF900895FF920F9375
:102070001F93CF93DF93EC01F9016136C1F58081A5
:10208000811117C0F18012810381612F85EE93E0E9
:102090000E9436058F3759F1602F85EE93E00E943C
:1020A00036058F3721F1202F412F6F2DCE013FDFD5
:1020B0001CC0813021F46181CE0101DF16C0823065
:1020C00019F4CE01F1DE11C0833021F46181CE011B
:1020D00011DE0BC0843021F4818180930A0205C097
:1020E000853029F46181CE01DEDD81E001C080E030
:1020F000DF91CF911F910F91FF9008950F9300E012
:1021000020E040E060E087E495E00E948C280F9199
:1021100008950895DF92EF92FF920F931F93CF934C
:10212000DF93EC01D62E8A01F12CE12C8A8DF81672
:1021300098F4FE01EF0DF11DEF0DF11D82819381E9
:10214000DC01ED91FC910280F381E02DA8016D2D61
:102150001995E82AF394EACF8E2DDF91CF911F9144
:102160000F91FF90EF90DF9008951F93CF93DF932F
:10217000EC0110E08A8D181780F4FE01E10FF11DCB
:10218000E10FF11D82819381DC01ED91FC910680CC
:10219000F781E02D19951F5FEDCFDF91CF911F9152
:1021A0000895CF92DF92EF92FF920F931F93CF93F8
:1021B000DF931F92CDB7DEB76C01562FE42E890155
:1021C0006B3609F455C06D3611F0F12C98C04111F1
:1021D00002C080E09AC0D9011C911634D0F760EF9C
:1021E00085EE93E00E94F5046EE685EE93E00E9492
:1021F000F504612F85EE93E00E94F504612F85EED2
:1022000093E00E943605682F85EE93E00E94F50466
:10221000612F85EE93E00E9465058C01682F6F7732
:1022200085EE93E00E94F504C8018078892B51F077
:10223000B801660F672F661F770B6F7785EE93E007
:102240000E94F504C8018827907C892B59F0B801B9
:10225000770F660B770F762F661F6F7785EE93E00B
:102260000E94F50467EF85EE93E00E94F5044CC0F0
:1022700060EF85EE93E00E94F5046CE685EE93E056
:102280000E94F50410E0612F85EE93E00E94360570
:102290008F3749F46FE785EE93E00E94F5041F5FE6
:1022A000163489F7DFCF00E0F601828D081790F72A
:1022B000F601E00FF11DE00FF11D82819381DC0139
:1022C000ED91FC910190F081E02D612F19950F5F48
:1022D000EBCFF601EF0DF11DEF0DF11D8281938122
:1022E000DC01ED91FC910480F581E02D98014E2DEB
:1022F000652F598319955981811106C0F394F60110
:10230000828DF81630F365CF81E00F90DF91CF9189
:102310001F910F91FF90EF90DF90CF900895CF9392
:10232000DF93EB01A0914D05B0914E05ED91FC912D
:1023300011970280F381E02DAB01682FCD01199533
:1023400081110BC0CF37D10541F06CE572E085EE0D
:1023500093E0DF91CF910C94F204DF91CF91089537
:102360009A01A0914D05B0914E05ED91FC91119708
:102370000480F581E02D462F682FCD01199581113C
:1023800006C06DE672E085EE93E00C94F2040895C9
:10239000CF93DF93EC0189E892E099838883D0930F
:1023A0004E05C0934D054FE851E164EF85EE93E093
:1023B0000E94FF0440EB51E160EF85EE93E00E9444
:1023C0002A051A8EDF91CF910895FC01828D8C3001
:1023D00048F491E0980F928FE80FF11DE80FF11D7E
:1023E000738362830895089580E00895CF93DF9307
:1023F000EC010E949F236E837F838887998783E106
:1024000090E09B878A87DF91CF9108956A37A9F47E
:10241000423098F0F90140812181F0E82F9F90012E
:102420001124240F311D2A30310514F42AE030E044
:10243000FC013387228781E0089580E008958F9220
:102440009F92AF92BF92CF92DF92EF92FF920F9343
:102450001F93CF93DF93EC010E949F236A837B83BA
:102460008C839D83CE80DF80E884F9844A855B85F8
:102470008A01222717FD2095322F4B015C018C1811
:102480009D08AE08BF08081519052A053B0500F58B
:10249000C00ED11EE21EF31E4B015C018C189D087C
:1024A000AE08BF08081519052A053B0528F0CE829D
:1024B000DF82E886F9860AC06B017C01C01AD10A66
:1024C000E20AF30ACE82DF82E886F98681E001C063
:1024D00080E0DF91CF911F910F91FF90EF90DF90FF
:1024E000CF90BF90AF909F908F900895089580E017
:1024F00008950F931F93CF93DF93EC018A819B8103
:10250000009741F0FC01008111810E943B2D1B834B
:102510000A83F4CFDF91CF911F910F910895FC01B1
:1025200081EA92E091838083F0935005E0934F0518
:10253000138212821582148264EF72E185EE93E0B9
:102540000C943005DC011296ED91FC911397A0E0FC
:10255000B0E03097B9F0228126130FC0208131817D
:10256000109719F02D933C9305C0DC0113963C9312
:102570002E931297CF010C943B2DDF010190F08137
:10258000E02DE7CF0895CF92DF92EF92FF920F9365
:102590001F93CF93DF93EC016A017B018C819D81B6
:1025A000892BC9F00E949F23EC81FD810381148156
:1025B000258136810C0D1D1D2E1D3F1D03831483A7
:1025C00025833683061717072807390724F4638302
:1025D000748385839683DF91CF911F910F91FF9034
:1025E000EF90DF90CF900895AB01BC0180914F0533
:1025F00090915005C8CFCF93DF93EC0160EF85EE4B
:1026000093E00E94F5046BE785EE93E00E94F504E9
:1026100069E085EE93E00E94F5040A80DB81C02D1D
:10262000209749F06A8185EE93E00E94F5040990B5
:10263000D881C02DF5CF67EF85EE93E0DF91CF9184
:102640000C94F504EF92FF920F931F93CF93DF93B7
:102650001F92CDB7DEB7162F7A0160EF85EE93E0BB
:1026600029830E94F5046BE785EE93E00E94F50450
:102670002981222311F068E001C06AE085EE93E031
:102680000E94F504612F85EE93E00E94F504E114A9
:10269000F104D1F086E295E08BD987010D5F1F4FE1
:1026A000F701878190850B9698012E193F0928170D
:1026B000390738F4F80161918F0186E295E087D9F6
:1026C000EFCF86E295E078D967EF85EE93E00F9043
:1026D000DF91CF911F910F91FF90EF900C94F50433
:1026E0006F927F928F929F92AF92BF92CF92DF9222
:1026F000EF92FF920F931F93CF93DF934C01EB0167
:10270000CB80DC80ED80FE8009851A856F8078841F
:10271000FC01758364835B01FBE0AF0EB11CA00E6E
:10272000B11E061517050CF50F5F1F4FF5016191DE
:102730005F0185EE93E00E949D058B819C81AD81B8
:10274000BE81C816D906EA06FB0659F30615170519
:1027500019F490E080E002C0902F812F99878A873A
:10276000F4011582148281E004C0F4011582148200
:1027700080E0DF91CF911F910F91FF90EF90DF905C
:10278000CF90BF90AF909F908F907F906F90089563
:102790008F929F92AF92BF92EF92FF920F931F93EF
:1027A000CF93DF938C01FC0182819381892B09F403
:1027B0003FC00E949F234B015C01F801C281D3817D
:1027C000E12CF12C2097A1F14B815C816D817E8100
:1027D00014161506160617063CF5481559056A0520
:1027E0007B0514F5BE01C8017BDF28819981882310
:1027F00021F07E01C22FD92FE5CFE114F10451F071
:10280000F70120839183CE010E943B2DF701C08107
:10281000D181D8CFF80122839383CE010E943B2D32
:10282000F801C281D381CECF0990D881C02DCACF03
:10283000DF91CF911F910F91FF90EF90BF90AF90DC
:102840009F908F900895DC011296ED91FC91139763
:10285000309739F08281681739F00190F081E02DCE
:10286000F7CF80E090E00895CF010895FF920F9395
:102870001F93CF93DF93EC01F62E8A01E4DF0097DC
:1028800051F021E0AC016F2DCE01DF91CF911F916E
:102890000F91FF90D7CEC8010B960E94A32CFC018C
:1028A000F2821382148215821682108707838A812E
:1028B0009B819183808312861186FB83EA83DF915B
:1028C000CF911F910F91FF900895DF92EF92FF92A9
:1028D0000F931F93CF93DF93EC01D62E8A017901DA
:1028E000B2DFFC010097E9F081859285800F911F8E
:1028F00027813085281739070CF1D701CD018E19B2
:102900009F0980179107D4F4818592859C012F5FE0
:102910003F4F328721872D91EF01C80FD91F2B8799
:10292000EDCF21E040E050E06D2DCE01DF91CF9161
:102930001F910F91FF90EF90DF9084CEDF91CF91A8
:102940001F910F91FF90EF90DF900895CF92DF924B
:10295000FF920F931F93CF93DF9300D01F92CDB7B9
:10296000DEB78C01F62E29833A834B835C836BDFC1
:102970006C0129813A814B815C81009711F1FC0146
:102980001286118629833A834B835C830E949F239E
:1029900029813A814B815C81620F731F841F951FCF
:1029A000F60163837483858396830F900F900F9055
:1029B0000F90DF91CF911F910F91FF90DF90CF90FB
:1029C000089521E040E050E06F2DC8010F900F9076
:1029D0000F900F90DF91CF911F910F91FF90DF909B
:1029E000CF9030CE1F93CF93DF93EC01162F2BDFC8
:1029F00020E0AC01612FCE01DF91CF911F9122CE5B
:102A0000CF92DF92EF92FF920F931F93CF93DF93BA
:102A10007C01E9016B3709F07AC0442309F479C0DD
:102A2000088110E00830110508F073C0F801EE5875
:102A3000FF4F0C945A2C443009F06BC04B8180E856
:102A4000489FA00111248A81482B6981C7010EDFAC
:102A500060C0423009F05DC0698174DD5AC0433006
:102A600008F457C050E04250510987E0849F80012C
:102A7000859F100D112483E0159507958A95E1F740
:102A80006901A2E0CA0ED11C9601A601B80186E236
:102A900095E00E94310D9601A8016981C70115DFFB
:102AA00038C04630B1F5A9014F5F5F4F9A0164E02D
:102AB00070E086E295E00E94310D49815A816B8178
:102AC0007C81C70160DD25C0473019F5A9014E5F43
:102AD0005F4F9A0164E070E086E295E00E94310D5C
:102AE0002A813B814C815D816981C7012FDF11C043
:102AF00082DD0FC0423069F4698174DF0AC0DC01F5
:102B0000ED91FC910680F781E02D199502C080E0DF
:102B100001C081E0DF91CF911F910F91FF90EF9065
:102B2000DF90CF900895CF92DF92EF92FF920F93B4
:102B30001F93CF93DF93EC01162F19861A861B86FD
:102B40001C861A82FC01FE96108211821282138268
:102B500058874F83188269832AAF0BAF28AF09AF1C
:102B600061E0822F0E949B2561E08BAD0E949B2536
:102B7000143051F4ECAECDAE61E08E2D0E949B2559
:102B800061E08DAD0E949B256F817885882777FD58
:102B90008095982F0E94A82A9B01AC0160ED7FE0F0
:102BA00089EC90E40E940D2A6B017C0168A779A74B
:102BB0008AA79BA720E034E244E759E40E94342B23
:102BC00020E030E048EC52E40E94342B0E94752A49
:102BD0006CA77DA78EA79FA720E030E44CE956E4C0
:102BE000C701B6010E94342B0E94752A68AB79ABED
:102BF0008AAB9BABA7019601C701B6010E94A92928
:102C00006CAB7DAB8EAB9FABDF91CF911F910F91E2
:102C1000FF90EF90DF90CF9008952F923F924F92C8
:102C20005F926F927F928F929F92AF92BF92CF925C
:102C3000DF92EF92FF920F931F93CF93DF93CDB765
:102C4000DEB72E970FB6F894DEBF0FBECDBF9E87BE
:102C50008D874A015B0169011701DC0119961D92FC
:102C60001D921D921C921C97FC01168E178E10A2AD
:102C700011A292961D921D921D921C929597979665
:102C80001C921E92969777FF0BC012961C92B094DE
:102C9000A09490948094811C911CA11CB11C04C030
:102CA00081E0ED85FE858283AD85BE851D968D9282
:102CB0009D92AD92BC9250979C966D917D918D9115
:102CC0009C919F979601442737FD4095542F0E9471
:102CD0003E2C29013A01ED85FE85248B358B468BF0
:102CE000578B0115110519F02114310491F4AD85AC
:102CF000BE8513964D925D926D927C921697FD0162
:102D0000808E918EA28EB38E83E0818B138A128A7D
:102D100017C0F1E08F169104A104B104A1F48FEF64
:102D20009FEFAD85BE8553969C938E93529782E01C
:102D300051968C935197FD012383348345835683A9
:102D400081E08083E0C081149104A104B10409F4FE
:102D5000DAC0C801AA2797FDA095BA2F89839A8364
:102D6000AB83BC83BC01CD010E94A82A9B01AC01AE
:102D7000AD85BE85D4966D917D918D919C91D797AF
:102D80000E940D2A0E949B2B20E030E443ED55E485
:102D90000E94342B20E030E04AE754E40E94342BB8
:102DA0000E94752A6D837E838F839887ED85FE85CB
:102DB00063837483858396839601D6010E94602C79
:102DC0006B017C0160A971A982A993A929813A812B
:102DD0004B815C810E94EE2B24E630E040E050E025
:102DE0000E943E2CC701B6010E943E2C69017A0167
:102DF000211531054105510521F4C12CD12C760155
:102E0000C394C101AA2797FDA095BA2F89879A87F5
:102E1000AB87BC87A5019401BC01CD010E94EE2BBC
:102E20009801220D331D442737FD4095542F0E94F1
:102E30003E2C211531054105510521F421E030E0FA
:102E400040E050E0C216D306E406F50648F0281923
:102E50003909AD85BE855D963C932E935C9719C06C
:102E6000A701960169817A818B819C810E94EE2B5A
:102E700090958095709561957F4F8F4F9F4F2985D5
:102E80003A854B855C850E943E2CED85FE85358F0D
:102E9000248FAD85BE855C968D919C915D97892B25
:102EA00031F48FEF9FEF5D969C938E935C97ED8549
:102EB000FE85848D958DAA2797FDA095BA2F880D44
:102EC000991DAA1DBB1D808F918FA28FB38F8D81FD
:102ED0009E81AF81B885481659066A067B0638F090
:102EE000438254826582768283E0818B04C081E0D4
:102EF000ED85FE85818BAD85BE8553961C921E9215
:102F0000529781E08C932E960FB6F894DEBF0FBED9
:102F1000CDBFDF91CF911F910F91FF90EF90DF9088
:102F2000CF90BF90AF909F908F907F906F905F9069
:102F30004F903F902F900895CF93DF93EC019981AC
:102F4000913099F4642F88AD0E94D42581E090E0FF
:102F50000E94F32360E089AD0E94D42581E090E0D7
:102F60000E94F32361E089AD4CC09230C9F4613016
:102F700051F038F0623069F0633009F046C060E02B
:102F800009C060E001C061E08AAD0E94D42561E023
:102F900005C061E08AAD0E94D42560E08BAD31C0F0
:102FA000943099F5613089F050F06230E1F063308F
:102FB00061F561E08AAD0E94D42560E019C061E04E
:102FC0008AAD0E94D42560E005C060E08AAD0E9411
:102FD000D42561E08BAD0E94D42561E08CAD0E94C8
:102FE000D42560E00DC060E08AAD0E94D42561E088
:102FF0008BAD0E94D42560E08CAD0E94D42561E0A9
:103000008DADDF91CF910C94D425DF91CF910895B0
:10301000FF920F931F93CF93DF93EC01FA80098502
:103020001A852B853C8581E0F81218C00F5F1F4F71
:103030002F4F3F4F09871A872B873C878F819885B1
:10304000AA2797FDA095BA2F081719072A073B074B
:1030500004F119861A861B861C861BC010161106E1
:103060001206130654F08F819885AA2797FDA09524
:10307000BA2F89879A87AB87BC8709851A852B85E4
:103080003C85015011092109310909871A872B87CD
:103090003C8769857A858B859C8524E030E040E01B
:1030A00050E00E943E2C4F2DCE01DF91CF911F9119
:1030B0000F91FF9041CF2F923F924F925F926F926C
:1030C0007F928F929F92AF92BF92CF92DF92EF92B8
:1030D000FF920F931F93CF93DF93CDB7DEB728975F
:1030E0000FB6F894DEBF0FBECDBF1C010E94AB230C
:1030F000F101FE960081118122813381D1014C9131
:10310000442309F461C14B015C01801A910AA20AAF
:10311000B30A13960D911D912D913C91169780162F
:103120009106A206B30608F44FC1608371838283BF
:10313000938351968C91813091F038F0823009F46C
:10314000D0C0833009F49BC036C1F10112A213A292
:1031500014A215A217A216A2108281E02DC1C101EE
:1031600057DFD10192968D909D90AD90BC90959730
:10317000BFEF8B1A9B0AAB0ABB0AF10182A293A292
:10318000A4A2B5A2828993890196938B828B4380F6
:1031900054806580768026A137A1A90160E070E0A7
:1031A00049835A836B837C83880F991F880F991FEB
:1031B00001969C01442737FD4095542F2D833E8373
:1031C0004F835887AEEFBFEFA30192010E94872C77
:1031D00029813A814B815C81621B730B840B950BB7
:1031E0002D813E814F8158850E943E2C69017A01D4
:1031F000C40CD51CE61CF71CC301B201660F771F77
:10320000881F991F29813A814B815C81620F731F4E
:10321000841F951F2D813E814F8158850E943E2C31
:10322000D10197967C936E93969758968D919D9128
:103230000D90BC91A02DF10188169906AA06BB0637
:1032400048F0848D958D938B828B82E0818B17A2C1
:1032500016A2B1C084899589A689B7898C159D0568
:10326000AE05BF050CF4A7C0C68ED78EE0A2F1A2B2
:1032700017A216A223E0218B6C017D019CC0C10125
:10328000C7DEF10182A193A1A4A1B5A10196A11D60
:10329000B11D82A393A3A4A3B5A3C488D588E6884F
:1032A000F788458556856785708984179507A60731
:1032B000B70708F07FC0F101408D518D628D738D8D
:1032C00084179507A607B70708F475C0848D958DF8
:1032D000938B828BC68CD78CE0A0F1A082E0818B8F
:1032E0006AC0C10195DEF10182A193A1A4A1B5A19B
:1032F0000196A11DB11D82A393A3A4A3B5A3028926
:1033000013890F5F1F4F138B028B83809480A580DE
:10331000B68086A197A19C0140E050E029833A83C2
:103320004B835C832801440C551C440C551C3FEF17
:10333000431A530A662457FC6094762CAEEFBFEF15
:10334000A50194010E94872C29813A814B815C81DF
:10335000621B730B840B950BA30192010E943E2C00
:1033600069017A01C501B401660F771F881F991F93
:1033700029813A814B815C81620F731F841F951FE5
:10338000A30192010E943E2CD10197967C936E93EB
:103390009697C80CD91CEA1CFB1CF7FE08C0F094D9
:1033A000E094D094C094C11CD11CE11CF11C17FD09
:1033B00002C0F101118A80E0D1011396CD92DD9215
:1033C000ED92FC92169701C080E028960FB6F89413
:1033D000DEBF0FBECDBFDF91CF911F910F91FF9048
:1033E000EF90DF90CF90BF90AF909F908F907F90A5
:1033F0006F905F904F903F902F9008956250603390
:1034000050F464E085EE93E00E94F5046EE085EEF2
:1034100093E00C94F50408952DEA32E0FC01318329
:103420002083909352058093510508952EEF260F27
:10343000203360F4FC01E60FF11DE60FF11D329719
:1034400080819181009711F0BA01D3C40895AB0136
:10345000682F8091510590915205E8CFAF92BF92AD
:10346000CF92DF92EF92FF920F931F93CF93DF9350
:103470005A016901E62EF12C870102501109000F53
:10348000111F080F191FF801C281D381209749F439
:1034900083E090E00E94B428EC019BD3F801D38331
:1034A000C283CE010AD5882311F0CE0161D4B7FEC4
:1034B00002C0D7FC0FC09601A501B701CE01DF9174
:1034C000CF911F910F91FF90EF90DF90CF90BF9021
:1034D000AF909BC3B701CE01DF91CF911F910F91A8
:1034E000FF90EF90DF90CF90BF90AF903CC4DF9201
:1034F000EF92FF920F931F93CF93DF937C01E9012B
:10350000603759F5453048F1D8808EEF8D0D803306
:1035100020F56D2D85EE93E00E9436058F37E9F09A
:1035200089810A8190E8099F80011124080F111DEB
:103530008B81CC8190E8C99FE0011124C80FD11D77
:1035400044E06D2D85EE93E00E943D059E01A801AB
:103550006D2DC70183DF81E001C080E0DF91CF9155
:103560001F910F91FF90EF90DF9008950F931F939D
:10357000CF93DF93EC01C60FD11DC60FD11D249749
:103580000A811B810115110559F0C80196D48823C1
:1035900011F0C801EDD3C8010E943B2D1B821A8295
:1035A000DF91CF911F910F9108952EEF260F2033B9
:1035B00058F44430510539F42FEF3FEF4FEF5FEFF0
:1035C0004DDF81E00895D2DF80E008951F93CF930F
:1035D000DF93EC0110E08EEF810F803318F4612F40
:1035E000CE01C4DF1F5F1634B1F7DF91CF911F9179
:1035F0000895FF920F931F93CF93DF938C01EC01FB
:1036000086E0F82E8A819B81009721F00E943B2D55
:103610001B821A82FA942296F110F4CFF8011686D2
:10362000DF91CF911F910F91FF900895CF93C62FF7
:103630004830510571F48EEF860F843450F460E009
:103640008C2F0E94D42561E08C2F0E949B2581E065
:1036500001C080E0CF9108956250643450F468E076
:1036600085EE93E00E94F50465E185EE93E00C940D
:10367000F50408958F929F92AF92BF92CF92DF92FE
:10368000EF92FF920F931F93CF93DF93EC01E42F00
:103690006901623709F0D1C0D9018C911196EC9083
:1036A000B5E0BE1508F4C9C0811117C0F901F28058
:1036B0009380848015810681612F85EE93E00E94BE
:1036C00036058F3709F4B9C0602F85EE93E00E946C
:1036D00036058F3709F06DC0B0C0813009F0CAC01F
:1036E000D90114964C91149750E060E070E097E097
:1036F000440F551F661F771F9A95D1F715960C91A9
:10370000159710E020E030E0FEE0000F111F221FAF
:10371000331FFA95D1F7402B512B622B732B139645
:103720008C911397482B16968C91169717962C917F
:10373000B0E82B9F90011124280F311DD60112965D
:103740008C91811107C070956095509541955F4FA0
:103750006F4F7F4FCE0DD11DCE0DD11D8A819B8124
:10376000009709F487C0F8EFFE0FF43028F4E12C3D
:10377000F12C00E010E01BC0EC3009F07BC0D6015A
:103780001A96EC911A971B96EC90B0E8EB9E70019C
:103790001124EE0EF11CD6011896EC91189719968B
:1037A0000C91B0E80B9F800111240E0F111D35DA2A
:1037B00061C048E0612F85EE93E00E943D0548E03E
:1037C000602F85EE93E00E943D055E01AE0CB11CBA
:1037D000AE0CB11CF50182819381892B19F48E8581
:1037E0008F5F8E87F0E88F9EE0011124C90DD11DF7
:1037F0008FEF8F0D823068F482E490E00E94B4284D
:103800004C01A4E0CA2EB3E0EB2E212FAE016F2DA8
:103810002AC0B4E0FB122EC0F601E780C0846E2DF2
:1038200085EE93E00E9436058F3739F06C2D85EEDA
:1038300093E00E9436058F3711F480E01CC048E009
:103840006E2D85EE93E00E943D0548E06C2D85EEDF
:1038500093E00E943D0582E490E00E94B4284C0170
:10386000212FAE0164E0C4015ED9D50113969C926C
:103870008E92129781E0DF91CF911F910F91FF906F
:10388000EF90DF90CF90BF90AF909F908F90089572
:103890001F93CF93DF93FC012685222309F1EC01CE
:1038A00010E08A819B810097B9F005DC8823A1F0A4
:1038B00060EF85EE93E00E94F50462E785EE93E009
:1038C0000E94F504612F85EE93E00E94F50467EFF6
:1038D00085EE93E00E94F5041F5F2296163009F7EB
:1038E000DF91CF911F910895CF92DF92EF92FF92D7
:1038F0000F931F93CF93DF936C018B017A01EC013F
:10390000CC5ADA4F888187FF04C0FB0111821082F4
:1039100023C02CE02C9DC0012D9D900D11242881E9
:10392000AC01420F511D27FD5A952091530530E0FF
:10393000421753078CF42881AC01420F511D27FD1B
:103940005A959A01FA01EE0FFF1FE20FF31FE85A92
:10395000FA4F208126FD19C088818F5F88838CE013
:103960008C9D90018D9D300D11248881A901480FF7
:10397000511D87FD5A958091530590E048175907CE
:10398000B4F488818C303CF112C02881820F911DE3
:1039900027FD9A95FC01EE0FFF1FE80FF91FE85A6B
:1039A000FA4F808160E08F730E94D425D5CFF80153
:1039B00080819181049680349C4918F480E49CE9CC
:1039C00004C0F801808191810496F701918380837E
:1039D0008FEF888341C0F801808191814881B901CE
:1039E000640F711D47FD7A95AB01FB01EE0FFF1FC0
:1039F000E40FF51FE85AFA4F41815281840F951F59
:103A0000F701918380838881A901480F511D87FDAB
:103A10005A95FA01EE0FFF1FE40FF51FE85AFA4F0F
:103A2000808186FF19C08881280F311D87FD3A9556
:103A3000F901EE0FFF1FE20FF31FE85AFA4F8081E2
:103A400061E08F73DF91CF911F910F91FF90EF9005
:103A5000DF90CF900C94D425DF91CF911F910F91DF
:103A6000FF90EF90DF90CF9008951F920F920FB6C6
:103A70000F9211240BB60F922F933F934F935F93A6
:103A80006F937F938F939F93AF93BF93EF93FF9326
:103A900048E850E064E870E081E090E025DFFF91C5
:103AA000EF91BF91AF919F918F917F916F915F91B6
:103AB0004F913F912F910F900BBE0F900FBE0F9023
:103AC0001F9018951F920F920FB60F9211240BB6EC
:103AD0000F922F933F934F935F936F937F938F93A7
:103AE0009F93AF93BF93EF93FF9348E950E064E94E
:103AF00070E082E090E0F8DEFF91EF91BF91AF912E
:103B00009F918F917F916F915F914F913F912F91F5
:103B10000F900BBE0F900FBE0F901F9018951F9225
:103B20000F920FB60F9211240BB60F922F933F9363
:103B30004F935F936F937F938F939F93AF93BF93B5
:103B4000EF93FF9348EA50E064EA70E083E090E08E
:103B5000CBDEFF91EF91BF91AF919F918F917F91BC
:103B60006F915F914F913F912F910F900BBE0F90EE
:103B70000FBE0F901F9018951F920F920FB60F92C5
:103B800011240BB60F922F933F934F935F936F9334
:103B90007F938F939F93AF93BF93EF93FF9348E2ED
:103BA00051E064E271E080E090E09EDEFF91EF91F1
:103BB000BF91AF919F918F917F916F915F914F9145
:103BC0003F912F910F900BBE0F900FBE0F901F9043
:103BD0001895209153052033A0F431E0320F309333
:103BE0005305FC012083822F90E0FC01EE0FFF1FA4
:103BF000E80FF91FE85AFA4F88EB9BE09283818324
:103C000008952FEFFC0120830895DF92EF92FF9239
:103C10000F931F93CF93DF93EC01D62E7A01890186
:103C20008881803308F067C061E08D2D84D788815A
:103C3000A82FB0E0FD01EE0FFF1FEA0FFB1FE85AAF
:103C4000FA4F2D2D2F739081907C922B908360E200
:103C500072E06E197F0977FF02C06D5F7F4F759527
:103C6000679575956795698340E659E0401B510B50
:103C700057FF02C04D5F5F4F559547955595479546
:103C80004A836CE00E94FD2B9CE0899FB0011124C7
:103C900020E030E0A901460F571FFA01EE0FFF1F89
:103CA000E40FF51FE85AFA4F908196FD18C02F5F78
:103CB0003F4F2C30310571F790E08130910521F5AF
:103CC0001092800082E08093810010928500109213
:103CD0008400B19A80916F00826080936F00888128
:103CE00090E0FC01EE0FFF1FE80FF91FE85AFA4FB2
:103CF0008081806480838881DF91CF911F910F91B3
:103D0000FF90EF90DF9008958230910569F4109252
:103D1000900082E0809391001092950010929400A0
:103D200088BB80937100DBCF8330910569F41092DA
:103D3000A00082E08093A1001092A5001092A40040
:103D400089BB80937200CBCF892B49F6109220015A
:103D500082E08093210110922501109224018ABBF8
:103D600080937300BCCF20E639E040E252E04DCFB3
:103D7000FC01808190E0FC01EE0FFF1FE80FF91FAE
:103D8000E85AFA4F80818F7B80830895FC018081FF
:103D9000803370F5918128E830E0291B310997FDC7
:103DA0003395220F331F220F331F621773077CF0E6
:103DB000928128E532E0291B310997FD3395220FC6
:103DC000331F220F331F621773070CF49B0122501D
:103DD0003109220F331F4FB7F89490E0FC01EE0F2A
:103DE000FF1FE80FF91FE85AFA4F328321834FBFB4
:103DF00008954F925F926F927F92AF92BF92CF924F
:103E0000DF92EF92FF920F931F93CF93DF93EC011A
:103E1000603282E078070CF040C077FD06C0653B59
:103E200071052CF064EB70E002C060E070E0898105
:103E300028E830E0281B310987FD3395220F331F16
:103E4000220F331F5901CC24B7FCC094DC2C8827E7
:103E500077FD8095982F2A8148E552E0421B510951
:103E600027FD5395440F551F440F551F2A01662403
:103E700057FC6094762C7F926F925F924F9214EB76
:103E8000E12EF12C00E010E020E030E0A9010E94DA
:103E900063290F900F900F900F90CE01DF91CF917B
:103EA0001F910F91FF90EF90DF90CF90BF90AF9058
:103EB0007F906F905F904F9069CFFC01808190E080
:103EC000FC01EE0FFF1FE80FF91FE85AFA4F80813F
:103ED00086FB882780F908958091170690E020914D
:103EE0001806821B910908952091180680911706E3
:103EF000281750F4E22FF0E0E75EF94F808190E060
:103F00002F5F2093180608958FEF9FEF0895E0919B
:103F1000180680911706E81730F4F0E0E75EF94FD5
:103F2000808190E008958FEF9FEF08950895CF92DC
:103F3000DF92EF92FF920F931F93CF93DF937C0159
:103F4000CB018A012091F405222389F0EB016B015A
:103F5000C40ED51ECC15DD0561F06991D701ED9138
:103F6000FC910190F081E02DC7011995F3CF642FEA
:103F70004BD0C801DF91CF911F910F91FF90EF902F
:103F8000DF90CF900895CF93DF931F92CDB7DEB728
:103F900069832091F4052223D1F02091F505203288
:103FA00040F021E030E0FC013383228380E090E0A8
:103FB00014C08091F605E82FF0E0E950FA4F99819E
:103FC00090838F5F8093F6058093F50504C061E0D0
:103FD000CE01019619D081E090E00F90DF91CF9152
:103FE0000895FC011382128248EE53E060E070E015
:103FF000448355836683778385EC92E09183808345
:10400000089588EE95E0EDCF613298F42091A606F0
:10401000243089F460935B06FC018DE596E0DC01B9
:104020002A2F281B261718F421912D93F9CF80E011
:10403000089581E0089582E0089585ED8093BC00A5
:104040008091BC0084FDFCCF1092A606089585ECFB
:104050008093BC001092A60608951F920F920FB68F
:104060000F9211240BB60F922F933F934F935F93B0
:104070006F937F938F939F93AF93BF93EF93FF9330
:104080008091B900887F803609F49CC068F5883239
:1040900009F45BC090F4803109F454C038F48823EB
:1040A00009F4F3C0883009F44DC0F2C0883109F436
:1040B0004CC0803209F45DC0EBC0803409F468C0A4
:1040C00048F4803309F455C0883309F0E1C0809387
:1040D0003906A7C0803509F44FC0883509F45DC0A2
:1040E000883409F0D5C0D3C0883909F4C4C0A8F415
:1040F000883709F467C038F4883609F463C080371C
:1041000009F460C0C5C0883809F4B5C0803909F425
:104110005FC0803809F0BCC05BC0803B09F483C03D
:1041200038F4803A09F466C0883A09F47CC0B0C01B
:10413000803C09F4A4C0883C09F4A1C0883B09F480
:1041400087C0A6C08091A50610C090917E06809180
:104150007D06981770F5E0917E0681E08E0F8093C2
:104160007E06F0E0E158F94F80818093BB0085EC3A
:1041700083C0809339068BC0E0917E0681E08E0F6C
:1041800080937E068091BB00F0E0E158F94F808378
:1041900090917E0680917D066BC0E0917E0681E065
:1041A0008E0F80937E068091BB00F0E0E158F94FBE
:1041B00080838091A40681116AC081E08093A30668
:1041C00084EA5EC083E08093A60610923A06CFCFC1
:1041D00080913A06803208F04EC0E0913A0681E0C4
:1041E0008E0F80933A068091BB00F0E0E55CF94FBA
:1041F0008083BDCF80913A06803230F4E0913A0658
:10420000F0E0E55CF94F108218DF60913A0670E04B
:10421000E0919F06F091A0068BE396E0199510922D
:104220003A0615DF35C084E08093A60610925C063E
:1042300010925B06E091A106F091A206199580917B
:104240005B06811105C081E080935B0610925D06DC
:10425000E0915C0681E08E0F80935C06F0E0E35A0B
:10426000F94F80818093BB0090915C0680915B0642
:10427000981708F47CCF85E88093BC0009C085ECD2
:104280008093BC001092A60603C010923906D5DEBA
:10429000FF91EF91BF91AF919F918F917F916F911E
:1042A0005F914F913F912F910F900BBE0F900FBEDA
:1042B0000F901F9018950895883008F06DC0E82F72
:1042C000F0E0EE0FFF1FE955F94F7183608390E036
:1042D000FC013197E730F10590F5E658FF4F0C945B
:1042E0005A2C809169008C7F842B80936900E89A16
:1042F000089580916900440F551F440F551F837F17
:10430000842B80936900E99A08958091690074E094
:10431000440F551F7A95E1F78F7C842B80936900B9
:10432000EA9A08958091690066E0440F551F6A95E6
:10433000E1F78F73842B80936900EB9A0895809145
:104340006A008C7F842B80936A00EC9A0895809198
:104350006A00440F551F440F551F837F842B8093A1
:104360006A00ED9A089580916A0024E0440F551F79
:104370002A95E1F78F7C842B80936A00EE9A08954A
:1043800080916A0096E0440F551F9A95E1F78F736C
:10439000842B80936A00EF9A08951F920F920FB6B4
:1043A0000F9211240BB60F922F933F934F935F936D
:1043B0006F937F938F939F93AF93BF93EF93FF93ED
:1043C0008091AB069091AC06892B29F0E091AB0669
:1043D000F091AC061995FF91EF91BF91AF919F912C
:1043E0008F917F916F915F914F913F912F910F909E
:1043F0000BBE0F900FBE0F901F9018951F920F923B
:104400000FB60F9211240BB60F922F933F934F9339
:104410005F936F937F938F939F93AF93BF93EF932C
:10442000FF938091AD069091AE06892B29F0E09123
:10443000AD06F091AE061995FF91EF91BF91AF9146
:104440009F918F917F916F915F914F913F912F91AC
:104450000F900BBE0F900FBE0F901F9018951F92DC
:104460000F920FB60F9211240BB60F922F933F931A
:104470004F935F936F937F938F939F93AF93BF936C
:10448000EF93FF938091AF069091B006892B29F0AE
:10449000E091AF06F091B0061995FF91EF91BF91B1
:1044A000AF919F918F917F916F915F914F913F91CC
:1044B0002F910F900BBE0F900FBE0F901F9018956D
:1044C0001F920F920FB60F9211240BB60F922F93DB
:1044D0003F934F935F936F937F938F939F93AF938C
:1044E000BF93EF93FF938091B1069091B206892B11
:1044F00029F0E091B106F091B2061995FF91EF9184
:10450000BF91AF919F918F917F916F915F914F91EB
:104510003F912F910F900BBE0F900FBE0F901F90E9
:1045200018951F920F920FB60F9211240BB60F928F
:104530002F933F934F935F936F937F938F939F93AB
:10454000AF93BF93EF93FF938091A7069091A80636
:10455000892B29F0E091A706F091A8061995FF9103
:10456000EF91BF91AF919F918F917F916F915F91EB
:104570004F913F912F910F900BBE0F900FBE0F9058
:104580001F9018951F920F920FB60F9211240BB621
:104590000F922F933F934F935F936F937F938F93DC
:1045A0009F93AF93BF93EF93FF938091A906909150
:1045B000AA06892B29F0E091A906F091AA0619957F
:1045C000FF91EF91BF91AF919F918F917F916F91EB
:1045D0005F914F913F912F910F900BBE0F900FBEA7
:1045E0000F901F9018951F920F920FB60F921124E3
:1045F0000BB60F922F933F934F935F936F937F93DD
:104600008F939F93AF93BF93EF93FF938091B306E4
:104610009091B406892B29F0E091B306F091B4068D
:104620001995FF91EF91BF91AF919F918F917F91DC
:104630006F915F914F913F912F910F900BBE0F9013
:104640000FBE0F901F9018951F920F920FB60F92EA
:1046500011240BB60F922F933F934F935F936F9359
:104660007F938F939F93AF93BF93EF93FF9380912B
:10467000B5069091B606892B29F0E091B506F09128
:10468000B6061995FF91EF91BF91AF919F918F91D0
:104690007F916F915F914F913F912F910F900BBE42
:1046A0000F900FBE0F901F9018951F920F920FB68C
:1046B0000F9211242F933F938F939F93AF93BF93A8
:1046C0008091B8069091B906A091BA06B091BB0648
:1046D0003091B70623E0230F2D3720F40196A11D5A
:1046E000B11D05C026E8230F0296A11DB11D209320
:1046F000B7068093B8069093B906A093BA06B09314
:10470000BB068091BC069091BD06A091BE06B091FB
:10471000BF060196A11DB11D8093BC069093BD06F6
:10472000A093BE06B093BF06BF91AF919F918F91AA
:104730003F912F910F900FBE0F901F9018952FB79C
:10474000F8946091B8067091B9068091BA0690917C
:10475000BB062FBF08953FB7F8948091BC06909197
:10476000BD06A091BE06B091BF0626B5A89B05C0A8
:104770002F3F19F00196A11DB11D3FBF6627782F6D
:10478000892F9A2F620F711D811D911D42E0660FC6
:10479000771F881F991F4A95D1F70895CF92DF920E
:1047A000EF92FF92CF93DF936B017C01D4DFEB019B
:1047B000C114D104E104F10479F07DDDCCDF6C1B80
:1047C0007D0B683E7340A0F381E0C81AD108E10870
:1047D000F108C851DC4FECCFDF91CF91FF90EF9003
:1047E000DF90CF9008958230910538F0880F991F9F
:1047F000880F991F05970197F1F70895789484B56C
:10480000826084BD84B5816084BD85B5826085BDCC
:1048100085B5816085BDEEE6F0E0808181608083B2
:10482000E1E8F0E010828081826080838081816095
:104830008083E0E8F0E0808181608083E1EBF0E05C
:10484000808184608083E0EBF0E080818160808300
:10485000E1E9F0E0808182608083808181608083F3
:10486000E0E9F0E0808181608083E1EAF0E080812E
:1048700082608083808181608083E0EAF0E08081D3
:1048800081608083E1E2F1E08081826080838081C9
:1048900081608083E0E2F1E0808181608083EAE7EB
:1048A000F0E0808184608083808182608083808169
:1048B000816080838081806880831092C100089528
:1048C000863308F0865320917B00982F9870277FBD
:1048D000922B90937B00877020910B0290E4299F8C
:1048E00090011124822B80937C0080917A00806457
:1048F00080937A0080917A0086FDFCCF80917800C9
:104900002091790090E0922B08951F93CF93DF932D
:10491000182FEB0161E00FD1209711F460E004C083
:10492000CF3FD10531F461E0812FDF91CF911F910D
:104930003BC1E12FF0E0E65BFE4F449150E0FA010D
:104940003197E231F10508F09AC0EF57FF4FB2C737
:1049500084B5806884BDC7BD97C084B5806284BDBE
:10496000C8BD92C080918000806880938000D09301
:104970008900C093880088C0809180008062809305
:104980008000D0938B00C0938A007EC0809180000D
:10499000886080938000D0938D00C0938C0074C099
:1049A0008091B00080688093B000C093B3006CC069
:1049B0008091B00080628093B000C093B40064C066
:1049C00080919000806880939000D0939900C0936C
:1049D00098005AC080919000806280939000D0939C
:1049E0009B00C0939A0050C0809190008860809393
:1049F0009000D0939D00C0939C0046C08091A00081
:104A000080688093A0008091A0008F7B8093A0009D
:104A1000D093A900C093A80037C08091A000806205
:104A20008093A000D093AB00C093AA002DC08091CA
:104A3000A00088608093A000D093AD00C093AC002C
:104A400023C080912001806880932001D0932901A8
:104A5000C093280119C080912001806280932001B9
:104A6000D0932B01C0932A010FC080912001886050
:104A700080932001D0932D01C0932C0105C0C03834
:104A8000D1050CF050CF4ACFDF91CF911F910895FF
:104A900090E0FC013197E231F10508F04BC0ED5692
:104AA000FF4F08C7809180008F7703C080918000FE
:104AB0008F7D80938000089580918000877FF9CF5B
:104AC00084B58F7702C084B58F7D84BD08958091B1
:104AD000B0008F7703C08091B0008F7D8093B000CD
:104AE0000895809190008F7707C0809190008F7D0E
:104AF00003C080919000877F8093900008958091FB
:104B0000A0008F7707C08091A0008F7D03C08091A7
:104B1000A000877F8093A0000895809120018F7767
:104B200007C0809120018F7D03C080912001877F85
:104B3000809320010895CF93DF9390E0FC01E0572C
:104B4000FE4F2491FC01EA52FE4F8491882349F1E3
:104B500090E0880F991FFC01E05BFD4FA591B49197
:104B60008A5C9D4FFC01C591D4919FB7611108C02B
:104B7000F8948C91209582238C93888182230AC09B
:104B8000623051F4F8948C91322F309583238C93BA
:104B90008881822B888304C0F8948C91822B8C931B
:104BA0009FBFDF91CF9108950F931F93CF93DF9312
:104BB0001F92CDB7DEB7282F30E0F901E65BFE4F3C
:104BC0008491F901E057FE4F1491F901EA52FE4F2A
:104BD00004910023C1F0882319F0698359DF6981AA
:104BE000E02FF0E0EE0FFF1FEA5CFD4FA591B491BE
:104BF0009FB7F8948C91611103C01095812301C077
:104C0000812B8C939FBF0F90DF91CF911F910F91BC
:104C10000895CF93DF93282F30E0F901E65BFE4F34
:104C20008491F901E057FE4FD491F901EA52FE4F09
:104C3000C491CC2389F081112BDFEC2FF0E0EE0F33
:104C4000FF1FE45EFD4FA591B4912C912D2381E0CF
:104C500090E021F480E002C080E090E0DF91CF910D
:104C60000895FC01818D228D90E0805C9F4F821B16
:104C700091098F7399270895FC01918D828D981762
:104C800031F0828DE80FF11D858D90E008958FEF52
:104C90009FEF0895FC01918D828D981761F0828DB0
:104CA000DF01A80FB11D5D968C91928D9F5F9F7360
:104CB000928F90E008958FEF9FEF08958FEF97E226
:104CC000892B39F080E090E0892B19F098D181117F
:104CD00025C080E090E0892B41F080E090E0892BB6
:104CE00021F00E94000081111CC080E090E0892B1F
:104CF00041F080E090E0892B21F00E9400008111BA
:104D000013C080E090E0892BA1F080E090E0892B37
:104D100081F00E94000081110AC008950E940000E5
:104D2000D8CF0E940000E1CF0E940000EACF0C948F
:104D300000000895FC01848DDF01A80FB11DA35A66
:104D4000BF4F2C91848D90E001968F739927848FAB
:104D5000A689B7892C93A089B1898C9180648C93A2
:104D6000938D848D981306C00288F389E02D80818D
:104D70008F7D80830895CF93DF93EC01888D882306
:104D8000C1F0EA89FB89808185FD05C0A889B989C0
:104D90008C9186FD0EC00FB607FCF5CF808185FF94
:104DA000F2CFA889B9898C9185FFEDCFCE01C2DF02
:104DB000E8CFDF91CF910895CF92DF92FF920F93CA
:104DC0001F93CF93DF931F92CDB7DEB76C0181E0C5
:104DD000D60158968C9358975B969C915B975C96FE
:104DE0008C915C97981307C05096ED91FC91519768
:104DF000808185FD2DC0F601038D10E00F5F1F4FF0
:104E00000F731127F02EF601848DF81210C00FB623
:104E100007FCF9CFD6015096ED91FC915197808116
:104E200085FFF1CFC601698385DF6981ECCF838D72
:104E3000E80FF11DE35AFF4F6083D6015B960C9398
:104E40005B975296ED91FC915397808180620CC0E4
:104E5000D6015696ED91FC91579760835096ED914F
:104E6000FC91519780818064808381E090E00F9075
:104E7000DF91CF911F910F91FF90DF90CF90089518
:104E8000BF92CF92DF92EF92FF92CF93DF93EC012C
:104E90006A017B01B22EE889F98982E0808341159D
:104EA00081EE58076105710599F060E079E08DE3C6
:104EB00090E0A7019601C0D4215031094109510960
:104EC0005695479537952795211580E1380790F03D
:104ED000E889F989108260E874E88EE190E0A70122
:104EE0009601AAD421503109410951095695479597
:104EF00037952795EC85FD853083EE85FF852083EA
:104F0000188EEC89FD89B082EA89FB8980818061F5
:104F10008083EA89FB89808188608083EA89FB89B4
:104F2000808180688083EA89FB8980818F7D80838E
:104F3000DF91CF91FF90EF90DF90CF90BF900895D9
:104F40001F920F920FB60F9211240BB60F922F9350
:104F50008F939F93EF93FF93E091D006F091D1064A
:104F60008081E091D606F091D70682FD12C0908133
:104F70008091D9068F5F8F732091DA06821751F0E6
:104F8000E091D906F0E0E054F94F958F8093D9066F
:104F900001C08081FF91EF919F918F912F910F9090
:104FA0000BBE0F900FBE0F901F9018951F920F927F
:104FB0000FB60F9211240BB60F922F933F934F937E
:104FC0005F936F937F938F939F93AF93BF93EF9371
:104FD000FF9380EC96E0AEDEFF91EF91BF91AF9131
:104FE0009F918F917F916F915F914F913F912F9101
:104FF0000F900BBE0F900FBE0F901F90189580EC76
:1050000096E02FDE21E0892B09F420E0822F08951D
:105010001092C3061092C20688EE93E0A0E0B0E0C2
:105020008093C4069093C506A093C606B093C706A6
:1050300085ED92E09093C1068093C00685EC90E0E8
:105040009093CD068093CC0684EC90E09093CF06AD
:105050008093CE0680EC90E09093D1068093D006AA
:1050600081EC90E09093D3068093D20682EC90E09E
:105070009093D5068093D40686EC90E09093D70663
:105080008093D6061092D9061092DA061092DB06AB
:105090001092DC060895AF92BF92CF92DF92EF920A
:1050A000FF920F931F93CF93DF936C017B01C0E0BE
:1050B000D0E000E010E0F601EC0FFD1F4AE050E008
:1050C0006281C701FAD05C016EE2C7018CD08A0D03
:1050D0009B1D080F191F2196C330D10561F74AE0C7
:1050E00050E0F6016581C701E8D0800F911FDF9184
:1050F000CF911F910F91FF90EF90DF90CF90BF90D5
:10510000AF90089525EE32E0FC01318320831282B6
:1051100013821482158208950F93FC0185EE92E0AC
:105120009183808362834383248305830F91089551
:1051300085EE92E090935E0780935D0710925F0783
:105140001092600710926107109262070895089507
:1051500055DBFDDF0E944802CEE5D6E20E94A401A5
:105160002097E1F3ABDDFACFEEC3CF92DF92EF925F
:10517000FF920F931F93CF93DF936C017A01EB01A2
:10518000E60EF71E00E010E0CE15DF0561F0699134
:10519000D601ED91FC910190F081E02DC6011995A9
:1051A000080F191FF1CFC801DF91CF911F910F9107
:1051B000FF90EF90DF90CF9008956115710581F019
:1051C000DB010D900020E9F7AD0141505109461B6C
:1051D000570BDC01ED91FC910280F381E02D1994D5
:1051E00080E090E00895DC01ED91FC910190F08168
:1051F000E02D19948F929F92AF92BF92CF92DF923F
:10520000EF92FF920F931F93CF93DF93CDB7DEB74B
:10521000A1970FB6F894DEBF0FBECDBF7C01C42EA0
:10522000E52FCB01D22E19A221E02D1510F02AE096
:10523000D22E8E010F5D1F4F8D2C912CA12CB12CE5
:105240006C2D7E2FA5019401F7D28C2DD29E801952
:105250001124015011098A3014F4805D01C0895C69
:10526000F8018083211531054105510521F0C22E39
:10527000E32FCA01E5CFB801C7019FDFA1960FB6A2
:10528000F894DEBF0FBECDBFDF91CF911F910F917C
:10529000FF90EF90DF90CF90BF90AF909F908F9056
:1052A00008952115310541F4DC01ED91FC91019047
:1052B000F081E02D642F19949DCF9A01462F50E084
:1052C00060E070E0EECF4F925F926F927F92AF926C
:1052D000BF92CF92DF92EF92FF920F931F93CF93E3
:1052E000DF93CDB7DEB729013A01621B730B840B44
:1052F000950B2A893B894C895D892A193B094C0900
:105300005D092A8B3B8B4C8B5D8B9B01AC016A89C1
:105310007B898C899D8962D2E418F50806091709F2
:10532000A8019701ABD22A0D3B1D4C1D5D1DCA0182
:10533000B901DF91CF911F910F91FF90EF90DF9016
:10534000CF90BF90AF907F906F905F904F900895F7
:105350005058BB27AA270ED04DC13ED130F043D1C3
:1053600020F031F49F3F11F41EF433C10EF4E095A8
:10537000E7FB29C1E92F4FD180F3BA176207730702
:105380008407950718F071F49EF567C10EF4E09557
:105390000B2EBA2FA02D0B01B90190010C01CA01EF
:1053A000A0011124FF27591B99F0593F50F4503E9A
:1053B00068F11A16F040A22F232F342F4427585F8C
:1053C000F3CF469537952795A795F0405395C9F7A4
:1053D0007EF41F16BA0B620B730B840BBAF091505C
:1053E000A1F0FF0FBB1F661F771F881FC2F70EC0FB
:1053F000BA0F621F731F841F48F4879577956795CE
:10540000B795F7959E3F08F0B3CF9395880F08F0B6
:105410009927EE0F9795879508950CD0EBC0E3D0B0
:1054200040F0DAD030F021F45F3F19F0CCC05111D8
:1054300015C1CFC0F0D098F39923C9F35523B1F328
:10544000951B550BBB27AA2762177307840738F0F3
:105450009F5F5F4F220F331F441FAA1FA9F333D052
:105460000E2E3AF0E0E830D091505040E695001C06
:10547000CAF729D0FE2F27D0660F771F881FBB1FC2
:10548000261737074807AB07B0E809F0BB0B802D9C
:10549000BF01FF2793585F4F2AF09E3F510568F0E8
:1054A00092C0DCC05F3FECF3983EDCF386957795C5
:1054B0006795B795F7959F5FC9F7880F911D9695EA
:1054C000879597F90895E1E0660F771F881FBB1F46
:1054D000621773078407BA0720F0621B730B840BF3
:1054E000BA0BEE1F88F7E095089504D06894B111C7
:1054F000B5C0089598D088F09F5790F0B92F99279C
:10550000B751A0F0D1F0660F771F881F991F1AF0CE
:10551000BA95C9F712C0B13081F09FD0B1E00895BB
:105520009CC0672F782F8827B85F39F0B93FCCF33C
:10553000869577956795B395D9F73EF490958095C4
:10554000709561957F4F8F4F9F4F0895E89409C0E4
:1055500097FB3EF490958095709561957F4F8F4FA6
:105560009F4F9923A9F0F92F96E9BB279395F695BC
:10557000879577956795B795F111F8CFFAF4BB0F3A
:1055800011F460FF1BC06F5F7F4F8F4F9F4F16C09E
:10559000882311F096E911C0772321F09EE8872F28
:1055A000762F05C0662371F096E8862F70E060E0E4
:1055B0002AF09A95660F771F881FDAF7880F96955D
:1055C000879597F9089597F99F6780E870E060E004
:1055D00008959FEF80EC089500240A94161617068C
:1055E00018060906089500240A94121613061406D4
:1055F00005060895092E0394000C11F4882352F037
:10560000BB0F40F4BF2B11F460FF04C06F5F7F4FEE
:105610008F4F9F4F089557FD9058440F551F59F0D5
:105620005F3F71F04795880F97FB991F61F09F3F8F
:1056300079F087950895121613061406551FF2CFB8
:105640004695F1DF08C0161617061806991FF1CF08
:1056500086957105610508940895E894BB2766272F
:105660007727CB0197F908950BD0C4CFB5DF28F089
:10567000BADF18F0952309F0A6CFABCF1124EECFF7
:10568000CADFA0F3959FD1F3950F50E0551F629F9D
:10569000F001729FBB27F00DB11D639FAA27F00D8B
:1056A000B11DAA1F649F6627B00DA11D661F829FB2
:1056B0002227B00DA11D621F739FB00DA11D621F97
:1056C000839FA00D611D221F749F3327A00D611DB4
:1056D000231F849F600D211D822F762F6A2F112496
:1056E0009F5750408AF0E1F088234AF0EE0FFF1FE9
:1056F000BB1F661F771F881F91505040A9F79E3F20
:10570000510570F060CFAACF5F3FECF3983EDCF319
:10571000869577956795B795F795E7959F5FC1F75C
:10572000FE2B880F911D9695879597F9089511F492
:105730000EF44FCF3EC077DFD0F39923D9F3CEF3E9
:105740009F57550B87FF43D00024A0E640EA900105
:1057500080585695979528F4805C660F771F881FB0
:1057600020F026173707480730F4621B730B840BB1
:10577000202931294A2BA6951794079420253125F5
:105780004A2758F7660F771F881F20F0261737071C
:10579000480730F4620B730B840B200D311D411D43
:1057A000A09581F7B901842F9158880F9695879518
:1057B00008959F3F31F0915020F487957795679534
:1057C000B795880F911D9695879597F908959150F3
:1057D0005040660F771F881FD2F70895DB018F9323
:1057E0009F9389D0BF91AF91A29F800D911DA39FE0
:1057F000900DB29F900D11240895991B79E004C07B
:10580000991F961708F0961B881F7A95C9F78095FF
:10581000089597FB072E16F4009406D077FD08D064
:105820007ED007FC05D03EF4909581959F4F08955A
:10583000709561957F4F0895A1E21A2EAA1BBB1B9C
:10584000FD010DC0AA1FBB1FEE1FFF1FA217B3074C
:10585000E407F50720F0A21BB30BE40BF50B661F62
:10586000771F881F991F1A9469F760957095809526
:1058700090959B01AC01BD01CF010895052E97FBCA
:1058800016F400940FD057FD05D0D6DF07FC02D0E8
:1058900046F408C050954095309521953F4F4F4FA5
:1058A0005F4F089590958095709561957F4F8F4FCC
:1058B0009F4F0895EE0FFF1F0590F491E02D19946E
:1058C00005D0332312F48A1B9B0B10C0A29FB0019A
:1058D000B39FC001A39F700D811D1124911DB29F24
:1058E000700D811D1124911D0895F0DFB7FF0895FB
:1058F000821B930B0895EADFA59F900DB49F900D36
:10590000A49F800D911D11240895B7FFF4CFF3DFFC
:10591000821B930B08950790F691E02D1994AA1B12
:10592000BB1B51E107C0AA1FBB1FA617B70710F08A
:10593000A61BB70B881F991F5A95A9F780959095BC
:10594000BC01CD010895CF93DF938230910510F40F
:1059500082E090E0E0916507F091660720E030E09A
:10596000A0E0B0E0309739F14081518148175907E4
:10597000B8F04817590771F482819381109729F084
:1059800013969C938E9312972CC0909366078093E6
:10599000650727C02115310531F04217530718F06C
:1059A000A901DB0101C0EF019A01BD01DF01028005
:1059B000F381E02DD7CF21153105F9F0281B390BE4
:1059C0002430310580F48A819B816115710521F0B5
:1059D000FB019383828304C09093660780936507DD
:1059E000FE01329644C0FE01E20FF31F81939193B2
:1059F00022503109398328833AC0209163073091BE
:105A00006407232B41F4209102023091030230936A
:105A10006407209363072091000230910102211551
:105A2000310541F42DB73EB7409104025091050273
:105A3000241B350BE0916307F0916407E217F3072D
:105A4000A0F42E1B3F0B2817390778F0AC014E5FEE
:105A50005F4F2417350748F04E0F5F1F50936407C0
:105A6000409363078193919302C0E0E0F0E0CF019F
:105A7000DF91CF910895CF93DF93009709F487C00A
:105A8000FC01329713821282C0916507D09166079C
:105A9000209781F420813181280F391F809163077D
:105AA000909164078217930779F5F0936407E09368
:105AB00063076DC0DE0120E030E0AE17BF0750F491
:105AC00012964D915C9113979D014115510509F175
:105AD000DA01F3CFB383A28340815181840F951FF4
